:100B440000A8C0003F065B4F666D7D077F6F006D98
:100B54001C5439385C5E5077047980400B0C0D0AC4
:100B64000A0E0F100C111213140D0A0B0D100C0A9F
:100B74001512121012161616161600EF00C500AF45
:100B840000A00096008E00870081007C007800742D
:100B94000071006D006B0068006500630061005F18
:100BA400005D005B005A0058005600550054005286
:100BB40000510050004E004D004C004B004A0049CB
:100BC40000480047004600450044004300430042FB
:100BD40000410040003F003F003E003D003D003C1E
:100BE400003B003A003A003900390038003700373A
:100BF4000036003600350034003400330033003250
:100C040000320031003100300030002F002F002E60
:100C1400002E002D002D002C002C002B002B002A70
:100C2400002A00290029002900280028002700277D
:100C34000026002600260025002500240024002488
:100C44000023002300220022002200210021002092
:100C540000200020001F001F001F001E001E001D9A
:100C6400001D001D001C001C001C001B001B001BA1
:100C7400001A001A001A00190019001800180018A8
:100C840000170017001700160016001600150015AF
:100C940000150014001400140013001300130012B4
:100CA4000012001200110011001000100010000FBB
:100CB400000F000F000E000E000E000D000D000DC1
:100CC400000C000C000C000B000B000B000A000AC7
:100CD40000090009000900080008000800070007CF
:100CE40000070006000600050005003600040003A6
:100CF40000030003000200020001000100010000E3
:100D04000000FFFFFFFFFFFFFFFEFFFEFFFDFFFDF3
:100D1400FFFCFFFCFFFBFFFBFFFAFFFAFFF9FFF903
:100D2400FFF8FFF8FFF7FFF7FFF6FFF6FFF5FFF513
:100D3400FFF4FFF3FFF3FFF2FFF2FFF1FFF0FFF028
:100D4400FFEFFFEEFFEDFFEDFFECFFEBFFEAFFE946
:100D5400FFE8FFE7FFE6FFE5FFE4FFE3FFE2FFE074
:100D6400FFDFFFDDFFDCFFDAFFD8FFD5FFD2FFCEC8
:060D7400FFC9FFC1016987
:1011790002580000025100000222AA55183316161F
:101189001616160A16160A0A0A0A0A0A16160A0A62
:101199000A0A0A0A0A16054CAA55FFFFFF014B0065
:1016A700121CF77F607E097D007C001217AA121DAD
:1016B700147D07E4FF121DFD121CDA7F98121BB67A
:1016C700755F007560007561227562007563027B46
:1016D700007A0079537D057C00121BE77BFF7A1C9B
:1016E70079997F0912172D7BFF7A1879917F02125A
:1016F700172D7BFF7A187921E4FF12172D7BFF7ACC
:101707001D79EA7F0612172D7BFF7A1D792F7F043B
:1017170012172D7BFF7A1D79D37F0712172D121E03
:0617270032121B7880FB6A
:101C1800E4FFFE746F2FF582740B3EF583E493FDA9
:101C280074332FF8A6050FBF00010EEF64054E7040
:0D1C3800E27F057E037838740AF608DEFCB2
:011C4500227C
:1019E500D3EF648094834003021C18E4FDFCEFFBF5
:1019F5003395E0FA900B6075F005EB120B32EA7542
:101A0500F005A42583F583E5822DF582E5833CF574
:101A150083E493FE74332DF8A6060DBD00010CED8D
:051A250064054C70C9CE
:011A2A002299
:101A7100C3ED64809480500EEF75F008A42438F80B
:101A81007617EDF404FDED75F00A1208F6FC75F019
:101A91000A1208F6ACF0EF75F008A42439F8A60490
:101AA100ED75F00A1208F6ADF0EF75F008A4243ACE
:041AB100F8A605226C
:0D1DAD007B007A00794C7D057C00021C71E2
:0C1DC700EF60047F1280027F108F4A2220
:101C9900AF551219E5AD56E4FFFE121A71E5556408
:101CA900026005E555B403047F0180027F00021D2F
:011CB900C763
:10189100E54B75F008A42433F8E6FFC007E54B7566
:1018A100F008A42434F8E6FDE54B75F008A42435CE
:1018B100F8E6FBE54B75F008A42436F8E6FFE54BA6
:1018C10075F008A42437F8E6FEE54B75F008A4246A
:1018D10038F8E6FCE54B75F008A42439F8E6FAE59A
:1018E1004B75F008A4243AF8E6F5618A608C5F8EA6
:0818F1005E8F5DD007021CBAF6
:101821000559E5597002055864C84558703BE5589B
:10183100C313FEE559132552FFE5513EFEAC58ADE9
:1018410059120967EF25E0FFEE33FE747C2FF58214
:10185100740B3EF583740193FD7F017E00121A71B2
:10186100E4F558F559F551F552121E1878247C000B
:101871007D007E007F0A1208D0AE28E5297802CECD
:10188100C313CE13D8F92552F552EE3551F5512235
:091DEA00121D57BF0103121DADCB
:011DF30022CD
:101D2F00E4FF121AF9BF0203E4F54B7F01121AF90F
:071D3F00BF0203754B0122F6
:0C1DD300E4FF121A2BBF0203754B022222
:091DF4008B88898C88898F88890D
:1011A90052007A86860086860086860086860086B4
:0911B900860086860041006F09E2
:03002B00021E268C
:061E260053BCEFD20F32A5
:020D7A001564FE
:100D7C00200F03020F23C20F90006EE0B409004055
:100D8C0003020F05900D97F8282873020DDE020D53
:100D9C00B2020DC4020DF0020DB2020DC4020E0718
:100DAC00020DB2020DC4AFBDEFFEADBE7C00E42D52
:100DBC00FFEC3E900070803CAFBDEFFEADBE7C0002
:100DCC00E42DFFEC3E900072F0A3EFF0751A0102D7
:100DDC000F0BAFBDEFFEADBE7C00E42DFFEC3E90E3
:100DEC0000748010AFBDEFFEADBE7C00E42DFFECB7
:100DFC003E900076F0A3EFF0020F0BAFBDEFFEAD0F
:100E0C00BE7C00E42DFFEC3E900078F0A3EFF09058
:100E1C000078E0FEA3E07807CEC313CE13D8F9A870
:100E2C0064F6C394065013A864E675F003A4247A00
:100E3C00F582E43400F583E014F090006FE014F0D8
:100E4C006003020F0B7409F0A864E4F6A864E6FFD3
:100E5C00C394064003020F0BEF75F003A4247AF53C
:100E6C0082E43400F583E0C39480502AE6FF75F0E9
:100E7C0003A4247BF582E43400F583E0D394804012
:100E8C0040EF75F003A4247CF582E43400F5837400
:100E9C0001F0F51B802BA864E6FF75F003A4247BFE
:100EAC00F582E43400F583E0C394805014EF75F0C0
:100EBC0003A4247CF582E43400F5837402F0751BE2
:100ECC0001A864E6FF75F003A4247AF582E43400EB
:100EDC00F583E0FEEF75F003A4247BF582E4340087
:100EEC00F583EEF0E675F003A4247AF582E4340081
:100EFC00F5837486F006020E5890006E74FFF09025
:100F0C00006EE0D39407400374FFF090006EE00491
:070F1C00F0901DF493F5BCF9
:030F230005642240
:021D75001564F3
:091D7700A864A61BE4F51BE6FFBD
:031D8000056422D5
:021D83001564E5
:091D8500A864A61AE4F51AE6FFB1
:031D8E00056422C7
:101BB6008F9D75BC88439720D2AD90004574FFF089
:101BC600A3740DF0A3747AF0A374FFF0A3741DF050
:101BD600A37475F0A374FFF0A3741DF0A37483F0CF
:011BE60022DC
:071E18007B017A00797022C2
:101A2B00C3EF64809480403BD3EF64809485503344
:101A3B00EFFD3395E0FC90007C75F003ED120B325B
:101A4B00EC75F003A42583F583E0FE90007C75F024
:101A5B0003ED120B32EC75F003A42583F583E4F050
:051A6B00AF06227F031D
:011A70002253
:10136C00E4F5809000ACE0FFB40800505F9013806F
:10137C00F828287302139802139E0213A40213AACE
:10138C000213B00213BA0213C40213CEC2A3C2A238
:10139C008016C2A3C2A2801AC2A3C2A2801EC2A37C
:1013AC00C2A28022C2A3D2A2C2A1C2A08020C2A388
:1013BC00D2A2C2A1D2A08016C2A3D2A2D2A1C2A094
:1013CC00800CC2A3D2A2D2A1D2A08002D2A3C3EF1E
:1013DC006480948850299000ACE0FF3395E0FE7453
:1013EC00A32FF58274003EF583E0FF3395E0FE7485
:1013FC00482FF582740B3EF583E493F580801E90A4
:10140C0000ACE0FFB408133395E0FE74A32FF58213
:10141C0074003EF583E0F5808003E4F5809000A233
:10142C00E0FF9000ACE004FEF0D3EF6480F8EE64D3
:10143C0080984014E0D36480948850047408F0229F
:09144C009000A1E09000ACF02238
:101D1400E4F5937594FF5395F043960F90002A745D
:0B1D2400FFF0A37413F0A3746CF02216
:091DFD009000A1EFF0A3EDF0222B
:101CBA009000A3EFF0A3EDF0A3EBF0A3E55DF0A392
:101CCA00E55EF0A3E55FF0A3E560F0A3E561F0222D
:061E2C009000ABEFF02274
:1011C200011E004900AE949400949400949400414E
:0311D20000AD1E4F
:0210560015641F
:1010580020B2069000AEE014F020B3069000B1E094
:1010680014F02097069000B4E014F09000ADE0145E
:10107800F06003021176741EF0A864E4F6A864E632
:10108800FFC3648094834003021176EF3395E0FE3A
:101098009000AE75F003EF120B32EE75F003A42545
:1010A80083F583E0C3948050399000AF75F003EF67
:1010B800120B32EE75F003A42583F583E0D39480F8
:1010C800405AE6FF3395E0FE9000B075F003EF124A
:1010D8000B32EE75F003A42583F5837401F0F51E39
:1010E800803AA864E6FF3395E0FE9000AF75F00300
:1010F800EF120B32EE75F003A42583F583E0C39459
:101108008050199000B075F003EF120B32EE75F0B5
:1011180003A42583F5837402F0751E01A864E6FF15
:10112800FD3395E0FC9000AE75F003ED120B32EC48
:1011380075F003A42583F583E0FE9000AF75F003F6
:10114800ED120B32EC75F003A42583F583EEF0EF76
:101158003395E0FE9000AE75F003EF120B32EE759A
:0E116800F003A42583F5837494F0060210852D
:03117600056422EB
:021D91001564D7
:091D9300A864A61EE4F51EE6FF9B
:031D9C00056422B9
:101CDA0090003074FFF0A3741DF0A37491F090008B
:0D1CEA002D74FFF0A37410F0A37456F022C7
:101AF900EF600764016003BF0233EFFD3395E0FC3B
:101B09009000B075F003ED120B32EC75F003A425CB
:101B190083F583E0FE9000B075F003ED120B32EC13
:0F1B290075F003A42583F583E4F0AF06227F0354
:011B3800228A
:1011D5004100000A4100290A41006D0A040E000081
:1011E50000000114004600670000FFFF8FFFC10DDE
:1011F500C105C108C101C10E60240005FF1E3EFFE7
:101205001E3EFF1E3EFF1E3EFF1E3EFF1E3EFF1EF4
:101215003EFF1E3EFF1E3EFF1E3EFF1E3EFF1E3EC4
:101225006036002AFF1E3EFF1E3EFF1E38FF1E3E93
:10123500FF1E38FF1E3EFF1E38FF1E3EFF1E3EFFEF
:101245001E3EFF1E38FF1E38FF1E38FF1E38FF1ECC
:0A1255003EFF1E3EFF1E3EFF1E3E40
:011E3E002281
:031E38007F002206
:10199E00438E805389F07BE07A2879017800900B92
:1019AE0044120B16121AB5EFF404F58A7BE07A286E
:1019BE0079017800900B44120B16121AB5C3E49FEE
:1019CE00FFE49EFE74019DFDE49CFC7808120B0260
:0719DE008F8CD28CD2A922EC
:03000B0002194C8B
:04194C00C0E0C0D067
:10195000D5080A75084C300D020514D20DA2037289
:10196000045036150AE50A7030850C0AD207300A91
:1019700017E50D6007150D438F01801D538FFEC2C3
:10198000B5D51615C20A8011050BE50BD394064098
:0919900008C203E5136002D2064F
:05199900D0D0D0E032C7
:1018F900300E47C20E900B44120B167810120B02D1
:101909008E1C8F1D900003E0FEA3E0FFE4FCFD7B2D
:1019190019FAF9F81209D2C006C007AE1CAF1DABFF
:1019290007AA06E4F9F8D007D006121AB578031207
:101939000B02900065EEF0A3EFF0900065E0FEA3C6
:02194900E0FFBD
:01194B002279
:091E0600900067E0FEA3E0FF225A
:091E0F00900067EEF0A3EFF02251
:101D460090006BEEF0A3EFF0900069ECF0A3EDF0DD
:011D5600226A
:031E3B00C2B4220C
:03003B0002145557
:10145500C0E0C083C082C0D075D000C004C005C044
:0314650006C007B7
:1014680030DF04C2DF807D30DA04C2DA807630D91A
:101478003DC2D9AFFBEFFEADEB7C00E42DFFEC3EA7
:1014880020000E900001F0A3EFF075DB11D2008070
:1014980053FE900001E0FCA3E0FDC3EF9DFFEE9C2E
:1014A800A3F0A3EFF075DB00C200D20E803630D86F
:1014B80033C2D8900067E07002A3E06022B2B49013
:1014C8000069E0FEA3E0F5EAEEF5FAA3E0FEA3E08A
:1014D800FF90006AE02FF0900069E03EF08005C2BE
:0414E800B453DAFE21
:1014EC00D007D006D005D004D0D0D082D083D0E0A5
:0114FC0032BD
:061E320012199ED2AF223E
:10161C003004047F0180027F00200A047E018002D6
:10162C007E00EE5F6074E515C39509506830023694
:10163C00750D01E515131313541FAB17AA18A9192F
:10164C00F582758300120918FFE515540704FEEFA7
:10165C00A806088002C333D8FC30D7057516038062
:10166C002F751601802AAB17AA18A91975F002E577
:10167C0015A4F58285F083120918F50DE51575F0A2
:10168C0002A429F9EA35F0FA900001120918F516AE
:0A169C000515D20A22C204438F1084
:0116A6002221
:10127F00900000E014F0701F740AF0D2059000295E
:10128F00E014F07012740AF0D20890006DE014F0C0
:10129F007005740AF0D20190002AA3E0FAA3E0F9D6
:1012AF00120B3E90002DA3E0FAA3E0F9120B3E9033
:1012BF000039A3E0FAA3E0F9120B3E900045A3E03A
:1012CF00FAA3E0F9120B3E900054A3E0FAA3E0F961
:1012DF00120B3E90005DA3E0FAA3E0F9120B3E90D3
:1012EF00004BA3E0FAA3E0F9120B3EEF600C900065
:1012FF001DA3E0FAA3E0F9120B3E90004EA3E0FA13
:10130F00A3E0F9120B3EEF600E900020A3E0FAA3CA
:10131F00E0F9120B3ED20BE512D394004016D51212
:10132F003030090C900023A3E0FAA3E0F9120B3E32
:10133F00D20C801D900051A3E0FAA3E0F9120B3EEE
:10134F00EF600E900023A3E0FAA3E0F9120B3ED258
:0D135F000C900005A3E0FAA3E0F9020B3E9C
:1014FD0090003FA3E0FAA3E0F9120B3E900042A347
:10150D00E0FAA3E0F9120B3E900033A3E0FAA3E05A
:10151D00F9120B3E900008A3E0FAA3E0F9120B3E7E
:10152D00900030A3E0FAA3E0F9120B3EEF600C90AF
:10153D000011A3E0FAA3E0F9120B3E900036A3E0F0
:10154D00FAA3E0F9120B3EEF600C900017A3E0FA3E
:10155D00A3E0F9120B3E900048A3E0FAA3E0F912C4
:10156D000B3EEF600C90001AA3E0FAA3E0F9120B0A
:10157D003E30060EC206900026A3E0FAA3E0F91253
:03158D000B3E22F0
:101B390090000BA3E0FAA3E0F9120B3E90003CA33E
:101B4900E0FAA3E0F9120B3EEF600C900014A3E059
:101B5900FAA3E0F9120B3E900057A3E0FAA3E0F9CB
:0F1B6900120B3E90005AA3E0FAA3E0F9020B3EE4
:101C4600AF11AE10AD0FAC0E900060120B269000D7
:101C560064E514F0E4F511F510F50FF50EF51490A2
:0B1C6600000EA3E0FAA3E0F9020B3E21
:101B7800300705C20712161C300D05C20D12127F60
:101B8800300505C2051214FD300805C208121B39BC
:101B9800300105C201121C46E5112401F511E43596
:0E1BA80010F510E4350FF50FE4350EF50E22A2
:10172D008B5A8A5B895CEFB40C005070901740F8AF
:10173D0028287302176402176902176E02177302C5
:10174D00177802177D02178202178702178C02176E
:10175D009102179602179B90000580359000088026
:10176D003090000B802B90000E8026900011802170
:10177D00900017801C900014801790001A80129012
:10178D00001D800D900020800890002380039000A4
:0D179D0026E55AF0A3E55BF0A3E55CF02221
:071E1F007B017A00796022CB
:07125F00011F004100B70070
:0D1DBA0020A409751F019000B77401F022EC
:021D9F001564C9
:091DA100A864A61FE4F51FE6FF8B
:031DAA00056422AB
:101CF70090003C74FFF0A3741DF0A3749FF0900054
:0D1D07003974FFF0A3741DF0A374BAF0222C
:021D5700156411
:0A1D59009000B7E0A864F6FFE4F084
:031D6300056422F2
:1012660055008C0000000000000000000000000097
:0812760000000100000000006F
:03002300020F26A3
:100F2600C0E0C0F0C083C082C0D075D000C000C091
:100F360001C002C003C004C005C006C00730993B0B
:100F4600C299900091E0FEA3E0FFC3900090E09F5D
:100F560090008FE09E501F90008CE0FBA3E0FAA368
:100F6600E0F9A3E475F0011209BC85F082F583125D
:100F76000918F5998005900093E4F0209803021073
:100F86003BC298300B09C20B900099E4F0A3F09095
:100F96000097E0FEA3E0FFA3E0FCA3E0FDC39FEC07
:100FA6009E5077900094E0FBA3E0FAA3E0F98D82CF
:100FB6008C83E59912094590009FE0FEA3E0FFC3EC
:100FC600ED9FEC9E5046900097E0FCA3E0FDEF9D60
:100FD600EE9C503890009CE0FBA3E0FAA3E0F99069
:100FE6000099E0FEA3E0FFF5828E83120918FD90BA
:100FF6000094E0FBA3E0FAA3E0F98F828E83120946
:10100600186D600890009974FFF0A3F090009AE0C4
:1010160004F07006900099E004F0900097E0FEA3BB
:10102600E0FFC390009AE09F900099E09E400690F2
:10103600009B7401F0D007D006D005D004D003D0B1
:1010460002D001D000D0D0D082D083D0F0D0E03210
:021D6600156402
:0A1D680090009BE0A864F6FFE4F091
:031D7200056422E3
:1017AA008F5D8E5C8D5B8C5A759850438E40538E3C
:1017BA00FE53890FE47B04FAF9F8900B44120B16D6
:1017CA00120A5DAB5DAA5CA95BA85A120A5DEFF426
:1017DA0004F58BE47B04FAF9F8900B44120B161209
:1017EA000A5DAB5DAA5CA95BA85A120A5DC3E49FB5
:1017FA00FFE49EFE74019DFDE49CFC7808120AEF4A
:10180A008F8DC2ABD28ED2AC90004E74FFF0A3740F
:07181A001DF0A37466F0222B
:101BE700900094EBF0A3EAF0A3E9F0A3ECF0A3EDE7
:101BF700F090009FE562F0A3E563F090009CE55F3D
:101C0700F0A3E560F0A3E561F0D20BE490009BF050
:011C170022AA
:101C7100900093E0701F90008CEBF0A3EAF0A3E9D1
:101C8100F0E4A3F0A3F0A3ECF0A3EDF0A37401F052
:081C9100D2997F02227F032299
:0B1DDF00900093E07002FF227F0122C1
:0300000002159056
:0C159000787FE4F6D8FD7581640215D761
:10080000E709F608DFFA8046E709F208DFFA803EDA
:1008100088828C83E709F0A3DFFA8032E309F608C7
:10082000DFFA8078E309F208DFFA807088828C832F
:10083000E309F0A3DFFA806489828A83E0A3F608E3
:10084000DFFA805889828A83E0A3F208DFFA804CBD
:1008500080D280FA80C680D4806980F28033801094
:1008600080A680EA809A80A880DA80E280CA8033FD
:1008700089828A83ECFAE493A3C8C582C8CCC58375
:10088000CCF0A3C8C582C8CCC583CCDFE9DEE78045
:100890000D89828A83E493A3F608DFF9ECFAA9F0C4
:1008A000EDFB2289828A83ECFAE0A3C8C582C8CC1A
:1008B000C583CCF0A3C8C582C8CCC583CCDFEADE33
:1008C000E880DB89828A83E493A3F208DFF980CC95
:1008D00088F0EF60010E4E60C388F0ED2402B4048E
:1008E0000050B9F582EB2402B4040050AF23234535
:0608F00082239008507302
:1008F600C2D530F707B2D563F0FF05F030E70CB28A
:10090600D5F4048463F0FF05F080018430D502F449
:020916000422B9
:10091800BB010CE58229F582E5833AF583E0225094
:1009280006E92582F8E622BBFE06E92582F8E222DE
:0D093800E58229F582E5833AF583E49322F8
:10094500F8BB010DE58229F582E5833AF583E8F0E8
:10095500225006E92582C8F622BBFE05E92582C894
:02096500F2227C
:10096700BC000BBE0029EF8DF084FFADF022E4CC74
:10097700F875F008EF2FFFEE33FEEC33FCEE9DEC3D
:10098700984005FCEE9DFE0FD5F0E9E4CEFD22ED83
:10099700F8F5F0EE8420D21CFEADF075F008EF2FCD
:1009A700FFED33FD4007985006D5F0F222C398FDBE
:0509B7000FD5F0EA225B
:1009BC00A3F8E0C5F025F0F0E582158270021583EE
:0609CC00E0C838F0E8224B
:1009D200E88FF0A4CC8BF0A42CFCE98EF0A42CFCC4
:1009E2008AF0EDA42CFCEA8EF0A4CDA8F08BF0A442
:1009F2002DCC3825F0FDE98FF0A42CCD35F0FCEBA1
:100A02008EF0A4FEA9F0EB8FF0A4CFC5F02ECD3965
:0F0A1200FEE43CFCEAA42DCE35F0FDE43CFC22D2
:100A210075F008758200EF2FFFEE33FECD33CDCC8C
:100A310033CCC58233C5829BED9AEC99E58298400F
:100A41000CF582EE9BFEED9AFDEC99FC0FD5F0D6EC
:100A5100E4CEFBE4CDFAE4CCF9A88222B800C1B916
:100A61000059BA002DEC8BF084CFCECDFCE5F0CB54
:100A7100F97818EF2FFFEE33FEED33FDEC33FCEB8D
:100A810033FB10D703994004EB99FB0FD8E5E4F948
:100A9100FA227818EF2FFFEE33FEED33FDEC33FC35
:100AA100C933C910D7059BE99A4007EC9BFCE99A29
:100AB100F90FD8E0E4C9FAE4CCFB2275F010EF2F6E
:100AC100FFEE33FEED33FDCC33CCC833C810D7076E
:100AD1009BEC9AE899400AED9BFDEC9AFCE899F8A9
:0E0AE1000FD5F0DAE4CDFBE4CCFAE4C8F9223C
:101AB500C2D5E830E70FB2D5E4C39BFBE49AFAE45C
:101AC50099F9E498F8EC30E717B2D5121AEB120A37
:101AD5005DE4C39BFBE49AFAE499F9E498F8800382
:101AE500120A5D30D50DE4C39FFFE49EFEE49DFD23
:041AF500E49CFC224F
:100AEF00E8600FECC313FCED13FDEE13FEEF13FFE5
:030AFF00D8F12209
:100B0200E86010ECA2E713FCED13FDEE13FEEF1309
:040B1200FFD8F022F6
:100B1600E493FC740193FD740293FE740393FF2225
:0C0B2600ECF0A3EDF0A3EEF0A3EFF02242
:0C0B3200A42582F582E5F03583F58322CE
:060B3E008A838982E47342
:10159C000216A7E493A3F8E493A34003F68001F2A8
:1015AC0008DFF48029E493A3F85407240CC8C33350
:1015BC00C4540F4420C8834004F456800146F6DF1F
:1015CC00E4800B0102040810204080901179E47E25
:1015DC00019360BCA3FF543F30E509541FFEE49314
:1015EC00A360010ECF54C025E060A840B8E493A3DB
:1015FC00FAE493A3F8E493A3C8C582C8CAC583CA06
:10160C00F0A3C8C582C8CAC583CADFE9DEE780BEBD
:01127E00006F
:00000001FF
